{
  "_format": "hh-sol-artifact-1",
  "contractName": "HealthLedger",
  "sourceName": "contracts/HealthLedger.sol",
  "abi": [
    {
      "inputs": [
        {
          "internalType": "address",
          "name": "admin",
          "type": "address"
        }
      ],
      "stateMutability": "nonpayable",
      "type": "constructor"
    },
    {
      "inputs": [],
      "name": "AccessControlBadConfirmation",
      "type": "error"
    },
    {
      "inputs": [
        {
          "internalType": "address",
          "name": "account",
          "type": "address"
        },
        {
          "internalType": "bytes32",
          "name": "neededRole",
          "type": "bytes32"
        }
      ],
      "name": "AccessControlUnauthorizedAccount",
      "type": "error"
    },
    {
      "anonymous": false,
      "inputs": [
        {
          "indexed": true,
          "internalType": "bytes32",
          "name": "recordId",
          "type": "bytes32"
        },
        {
          "indexed": true,
          "internalType": "address",
          "name": "grantee",
          "type": "address"
        },
        {
          "indexed": true,
          "internalType": "address",
          "name": "granter",
          "type": "address"
        }
      ],
      "name": "AccessGranted",
      "type": "event"
    },
    {
      "anonymous": false,
      "inputs": [
        {
          "indexed": true,
          "internalType": "bytes32",
          "name": "recordId",
          "type": "bytes32"
        },
        {
          "indexed": true,
          "internalType": "address",
          "name": "grantee",
          "type": "address"
        },
        {
          "indexed": true,
          "internalType": "address",
          "name": "revoker",
          "type": "address"
        }
      ],
      "name": "AccessRevoked",
      "type": "event"
    },
    {
      "anonymous": false,
      "inputs": [
        {
          "indexed": true,
          "internalType": "bytes32",
          "name": "recordId",
          "type": "bytes32"
        },
        {
          "indexed": true,
          "internalType": "address",
          "name": "patient",
          "type": "address"
        },
        {
          "indexed": true,
          "internalType": "address",
          "name": "createdBy",
          "type": "address"
        },
        {
          "indexed": false,
          "internalType": "string",
          "name": "cid",
          "type": "string"
        }
      ],
      "name": "RecordCreated",
      "type": "event"
    },
    {
      "anonymous": false,
      "inputs": [
        {
          "indexed": true,
          "internalType": "bytes32",
          "name": "recordId",
          "type": "bytes32"
        },
        {
          "indexed": false,
          "internalType": "string",
          "name": "newCid",
          "type": "string"
        },
        {
          "indexed": false,
          "internalType": "string",
          "name": "newMeta",
          "type": "string"
        },
        {
          "indexed": true,
          "internalType": "address",
          "name": "updater",
          "type": "address"
        }
      ],
      "name": "RecordUpdated",
      "type": "event"
    },
    {
      "anonymous": false,
      "inputs": [
        {
          "indexed": true,
          "internalType": "bytes32",
          "name": "role",
          "type": "bytes32"
        },
        {
          "indexed": true,
          "internalType": "bytes32",
          "name": "previousAdminRole",
          "type": "bytes32"
        },
        {
          "indexed": true,
          "internalType": "bytes32",
          "name": "newAdminRole",
          "type": "bytes32"
        }
      ],
      "name": "RoleAdminChanged",
      "type": "event"
    },
    {
      "anonymous": false,
      "inputs": [
        {
          "indexed": true,
          "internalType": "bytes32",
          "name": "role",
          "type": "bytes32"
        },
        {
          "indexed": true,
          "internalType": "address",
          "name": "account",
          "type": "address"
        },
        {
          "indexed": true,
          "internalType": "address",
          "name": "sender",
          "type": "address"
        }
      ],
      "name": "RoleGranted",
      "type": "event"
    },
    {
      "anonymous": false,
      "inputs": [
        {
          "indexed": true,
          "internalType": "bytes32",
          "name": "role",
          "type": "bytes32"
        },
        {
          "indexed": true,
          "internalType": "address",
          "name": "account",
          "type": "address"
        },
        {
          "indexed": true,
          "internalType": "address",
          "name": "sender",
          "type": "address"
        }
      ],
      "name": "RoleRevoked",
      "type": "event"
    },
    {
      "inputs": [],
      "name": "ADMIN_ROLE",
      "outputs": [
        {
          "internalType": "bytes32",
          "name": "",
          "type": "bytes32"
        }
      ],
      "stateMutability": "view",
      "type": "function"
    },
    {
      "inputs": [],
      "name": "DEFAULT_ADMIN_ROLE",
      "outputs": [
        {
          "internalType": "bytes32",
          "name": "",
          "type": "bytes32"
        }
      ],
      "stateMutability": "view",
      "type": "function"
    },
    {
      "inputs": [],
      "name": "DOCTOR_ROLE",
      "outputs": [
        {
          "internalType": "bytes32",
          "name": "",
          "type": "bytes32"
        }
      ],
      "stateMutability": "view",
      "type": "function"
    },
    {
      "inputs": [
        {
          "internalType": "address",
          "name": "account",
          "type": "address"
        }
      ],
      "name": "addDoctor",
      "outputs": [],
      "stateMutability": "nonpayable",
      "type": "function"
    },
    {
      "inputs": [
        {
          "internalType": "bytes32",
          "name": "recordId",
          "type": "bytes32"
        },
        {
          "internalType": "address",
          "name": "patient",
          "type": "address"
        },
        {
          "internalType": "string",
          "name": "cid",
          "type": "string"
        },
        {
          "internalType": "string",
          "name": "meta",
          "type": "string"
        }
      ],
      "name": "createRecord",
      "outputs": [],
      "stateMutability": "nonpayable",
      "type": "function"
    },
    {
      "inputs": [
        {
          "internalType": "bytes32",
          "name": "recordId",
          "type": "bytes32"
        }
      ],
      "name": "getRecord",
      "outputs": [
        {
          "internalType": "address",
          "name": "patient",
          "type": "address"
        },
        {
          "internalType": "address",
          "name": "createdBy",
          "type": "address"
        },
        {
          "internalType": "string",
          "name": "cid",
          "type": "string"
        },
        {
          "internalType": "string",
          "name": "meta",
          "type": "string"
        },
        {
          "internalType": "uint256",
          "name": "createdAt",
          "type": "uint256"
        }
      ],
      "stateMutability": "view",
      "type": "function"
    },
    {
      "inputs": [
        {
          "internalType": "bytes32",
          "name": "role",
          "type": "bytes32"
        }
      ],
      "name": "getRoleAdmin",
      "outputs": [
        {
          "internalType": "bytes32",
          "name": "",
          "type": "bytes32"
        }
      ],
      "stateMutability": "view",
      "type": "function"
    },
    {
      "inputs": [
        {
          "internalType": "bytes32",
          "name": "recordId",
          "type": "bytes32"
        },
        {
          "internalType": "address",
          "name": "grantee",
          "type": "address"
        }
      ],
      "name": "grantAccess",
      "outputs": [],
      "stateMutability": "nonpayable",
      "type": "function"
    },
    {
      "inputs": [
        {
          "internalType": "bytes32",
          "name": "role",
          "type": "bytes32"
        },
        {
          "internalType": "address",
          "name": "account",
          "type": "address"
        }
      ],
      "name": "grantRole",
      "outputs": [],
      "stateMutability": "nonpayable",
      "type": "function"
    },
    {
      "inputs": [
        {
          "internalType": "bytes32",
          "name": "recordId",
          "type": "bytes32"
        },
        {
          "internalType": "address",
          "name": "account",
          "type": "address"
        }
      ],
      "name": "hasAccess",
      "outputs": [
        {
          "internalType": "bool",
          "name": "",
          "type": "bool"
        }
      ],
      "stateMutability": "view",
      "type": "function"
    },
    {
      "inputs": [
        {
          "internalType": "bytes32",
          "name": "role",
          "type": "bytes32"
        },
        {
          "internalType": "address",
          "name": "account",
          "type": "address"
        }
      ],
      "name": "hasRole",
      "outputs": [
        {
          "internalType": "bool",
          "name": "",
          "type": "bool"
        }
      ],
      "stateMutability": "view",
      "type": "function"
    },
    {
      "inputs": [
        {
          "internalType": "address",
          "name": "account",
          "type": "address"
        }
      ],
      "name": "removeDoctor",
      "outputs": [],
      "stateMutability": "nonpayable",
      "type": "function"
    },
    {
      "inputs": [
        {
          "internalType": "bytes32",
          "name": "role",
          "type": "bytes32"
        },
        {
          "internalType": "address",
          "name": "callerConfirmation",
          "type": "address"
        }
      ],
      "name": "renounceRole",
      "outputs": [],
      "stateMutability": "nonpayable",
      "type": "function"
    },
    {
      "inputs": [
        {
          "internalType": "bytes32",
          "name": "recordId",
          "type": "bytes32"
        },
        {
          "internalType": "address",
          "name": "grantee",
          "type": "address"
        }
      ],
      "name": "revokeAccess",
      "outputs": [],
      "stateMutability": "nonpayable",
      "type": "function"
    },
    {
      "inputs": [
        {
          "internalType": "bytes32",
          "name": "role",
          "type": "bytes32"
        },
        {
          "internalType": "address",
          "name": "account",
          "type": "address"
        }
      ],
      "name": "revokeRole",
      "outputs": [],
      "stateMutability": "nonpayable",
      "type": "function"
    },
    {
      "inputs": [
        {
          "internalType": "bytes4",
          "name": "interfaceId",
          "type": "bytes4"
        }
      ],
      "name": "supportsInterface",
      "outputs": [
        {
          "internalType": "bool",
          "name": "",
          "type": "bool"
        }
      ],
      "stateMutability": "view",
      "type": "function"
    },
    {
      "inputs": [
        {
          "internalType": "bytes32",
          "name": "recordId",
          "type": "bytes32"
        },
        {
          "internalType": "string",
          "name": "newCid",
          "type": "string"
        },
        {
          "internalType": "string",
          "name": "newMeta",
          "type": "string"
        }
      ],
      "name": "updateRecord",
      "outputs": [],
      "stateMutability": "nonpayable",
      "type": "function"
    }
  ],
  "bytecode": "0x60806040523480156200001157600080fd5b506040516200164038038062001640833981016040819052620000349162000171565b6001600160a01b038116620000805760405162461bcd60e51b815260206004820152600e60248201526d18591b5a5b881c995c5d5a5c995960921b604482015260640160405180910390fd5b6200008d600082620000c2565b50620000ba7fa49807205ce4d355092ef5a8a18f56e8913cf4a201fbe287825b095693c2177582620000c2565b5050620001a3565b6000828152602081815260408083206001600160a01b038516845290915281205460ff1662000167576000838152602081815260408083206001600160a01b03861684529091529020805460ff191660011790556200011e3390565b6001600160a01b0316826001600160a01b0316847f2f8788117e7eff1d82e926ec794901d17c78024a50270940304540a733656f0d60405160405180910390a45060016200016b565b5060005b92915050565b6000602082840312156200018457600080fd5b81516001600160a01b03811681146200019c57600080fd5b9392505050565b61148d80620001b36000396000f3fe608060405234801561001057600080fd5b506004361061010b5760003560e01c80634780468f116100a257806391d148541161007157806391d148541461023c57806398fc90e91461024f578063a217fddf14610262578063d547741f1461026a578063fec331f21461027d57600080fd5b80634780468f146101ee57806375b238fc1461020157806383177db3146102165780638d53b2081461022957600080fd5b8063248a9ca3116100de578063248a9ca3146101845780632f2ff15d146101b557806336568abe146101c857806340554c3a146101db57600080fd5b806301ffc9a71461011057806307b702ba146101385780630fdf5ca71461014d578063213681cd14610160575b600080fd5b61012361011e366004610ecb565b610292565b60405190151581526020015b60405180910390f35b61014b610146366004610f61565b6102c9565b005b61014b61015b366004610feb565b610583565b61017361016e366004611065565b6106c2565b60405161012f9594939291906110c4565b6101a7610192366004611065565b60009081526020819052604090206001015490565b60405190815260200161012f565b61014b6101c3366004611115565b6108e9565b61014b6101d6366004611115565b610914565b61014b6101e9366004611115565b61094c565b61014b6101fc366004611141565b610a98565b6101a760008051602061143883398151915281565b610123610224366004611115565b610b15565b61014b610237366004611115565b610bbc565b61012361024a366004611115565b610cc1565b61014b61025d366004611141565b610cea565b6101a7600081565b61014b610278366004611115565b610d63565b6101a760008051602061141883398151915281565b60006001600160e01b03198216637965db0b60e01b14806102c357506301ffc9a760e01b6001600160e01b03198316145b92915050565b6102e160008051602061141883398151915233610cc1565b806102ff57506102ff60008051602061143883398151915233610cc1565b806103105750610310600033610cc1565b6103545760405162461bcd60e51b815260206004820152601060248201526f3737ba103237b1ba37b917b0b236b4b760811b60448201526064015b60405180910390fd5b6001600160a01b03851661039d5760405162461bcd60e51b815260206004820152601060248201526f1c185d1a595b9d081c995c5d5a5c995960821b604482015260640161034b565b600086815260016020526040902060040154156103e55760405162461bcd60e51b815260206004820152600660248201526565786973747360d01b604482015260640161034b565b6040518060a00160405280866001600160a01b03168152602001336001600160a01b0316815260200185858080601f016020809104026020016040519081016040528093929190818152602001838380828437600092019190915250505090825250604080516020601f8601819004810282018101909252848152918101919085908590819084018382808284376000920182905250938552505042602093840152508881526001808352604091829020845181546001600160a01b03199081166001600160a01b0392831617835594860151928201805490951692169190911790925582015160028201906104db90826111fc565b50606082015160038201906104f090826111fc565b506080919091015160049091015560008681526002602090815260408083206001600160a01b03891680855292528083208054600160ff1991821681179092553380865294839020805490911690911790555188907e73d3c2a84f8f8e279a002e4d9d8aed780efae1e49ef555bd671d416a3f9d869061057390899089906112e5565b60405180910390a4505050505050565b600085815260016020526040812060048101549091036105b55760405162461bcd60e51b815260040161034b90611301565b6105cd60008051602061143883398151915233610cc1565b806105de57506105de600033610cc1565b806105f2575080546001600160a01b031633145b806106165750600086815260026020908152604080832033845290915290205460ff165b6106525760405162461bcd60e51b815260206004820152600d60248201526c3737903832b936b4b9b9b4b7b760991b604482015260640161034b565b60028101610661858783611324565b5060038101610671838583611324565b50336001600160a01b0316867f8f9586b5cb9b032c0c4e4176d5e760b09b3ab8ebef35a13a6edd4e28f13d8584878787876040516106b294939291906113e5565b60405180910390a3505050505050565b6000818152600160205260408120600481015482916060918291849182036106fc5760405162461bcd60e51b815260040161034b90611301565b61071460008051602061143883398151915233610cc1565b806107255750610725600033610cc1565b80610739575080546001600160a01b031633145b8061075d5750600087815260026020908152604080832033845290915290205460ff165b6107955760405162461bcd60e51b81526020600482015260096024820152686e6f2061636365737360b81b604482015260640161034b565b8054600182015460048301546002840180546001600160a01b0394851694909316929091600386019183906107c990611172565b80601f01602080910402602001604051908101604052809291908181526020018280546107f590611172565b80156108425780601f1061081757610100808354040283529160200191610842565b820191906000526020600020905b81548152906001019060200180831161082557829003601f168201915b5050505050925081805461085590611172565b80601f016020809104026020016040519081016040528092919081815260200182805461088190611172565b80156108ce5780601f106108a3576101008083540402835291602001916108ce565b820191906000526020600020905b8154815290600101906020018083116108b157829003601f168201915b50505050509150955095509550955095505091939590929450565b60008281526020819052604090206001015461090481610d88565b61090e8383610d95565b50505050565b6001600160a01b038116331461093d5760405163334bd91960e11b815260040160405180910390fd5b6109478282610e27565b505050565b6000828152600160205260408120600481015490910361097e5760405162461bcd60e51b815260040161034b90611301565b6001600160a01b0382166109c25760405162461bcd60e51b815260206004820152600b60248201526a626164206772616e74656560a81b604482015260640161034b565b80546001600160a01b03163314806109ed57506109ed60008051602061143883398151915233610cc1565b806109fe57506109fe600033610cc1565b610a3c5760405162461bcd60e51b815260206004820152600f60248201526e3737ba1037bbb732b917b0b236b4b760891b604482015260640161034b565b60008381526002602090815260408083206001600160a01b0386168085529252808320805460ff1916600117905551339286917f7aeffe35f64b55a7c424c5fccc3fba0f3ac4ebd764cc737855b8734834458f2b9190a4505050565b610ab060008051602061143883398151915233610cc1565b80610ac15750610ac1600033610cc1565b610af95760405162461bcd60e51b81526020600482015260096024820152683737ba1030b236b4b760b91b604482015260640161034b565b610b1160008051602061141883398151915282610d95565b5050565b600082815260016020526040812060048101548203610b385760009150506102c3565b80546001600160a01b0390811690841603610b575760019150506102c3565b610b6f60008051602061143883398151915284610cc1565b80610b805750610b80600084610cc1565b15610b8f5760019150506102c3565b505060009182526002602090815260408084206001600160a01b0393909316845291905290205460ff1690565b60008281526001602052604081206004810154909103610bee5760405162461bcd60e51b815260040161034b90611301565b80546001600160a01b0316331480610c195750610c1960008051602061143883398151915233610cc1565b80610c2a5750610c2a600033610cc1565b610c685760405162461bcd60e51b815260206004820152600f60248201526e3737ba1037bbb732b917b0b236b4b760891b604482015260640161034b565b60008381526002602090815260408083206001600160a01b0386168085529252808320805460ff1916905551339286917ffab19bdeacf1ea13315b1da3f79a3403fe4f16793b6a03eeff9e0bbbea24fe5f9190a4505050565b6000918252602082815260408084206001600160a01b0393909316845291905290205460ff1690565b610d0260008051602061143883398151915233610cc1565b80610d135750610d13600033610cc1565b610d4b5760405162461bcd60e51b81526020600482015260096024820152683737ba1030b236b4b760b91b604482015260640161034b565b610b1160008051602061141883398151915282610e27565b600082815260208190526040902060010154610d7e81610d88565b61090e8383610e27565b610d928133610e92565b50565b6000610da18383610cc1565b610e1f576000838152602081815260408083206001600160a01b03861684529091529020805460ff19166001179055610dd73390565b6001600160a01b0316826001600160a01b0316847f2f8788117e7eff1d82e926ec794901d17c78024a50270940304540a733656f0d60405160405180910390a45060016102c3565b5060006102c3565b6000610e338383610cc1565b15610e1f576000838152602081815260408083206001600160a01b0386168085529252808320805460ff1916905551339286917ff6391f5c32d9c69d2a47ea670b442974b53935d1edc7fd64eb21e047a839171b9190a45060016102c3565b610e9c8282610cc1565b610b115760405163e2517d3f60e01b81526001600160a01b03821660048201526024810183905260440161034b565b600060208284031215610edd57600080fd5b81356001600160e01b031981168114610ef557600080fd5b9392505050565b80356001600160a01b0381168114610f1357600080fd5b919050565b60008083601f840112610f2a57600080fd5b50813567ffffffffffffffff811115610f4257600080fd5b602083019150836020828501011115610f5a57600080fd5b9250929050565b60008060008060008060808789031215610f7a57600080fd5b86359550610f8a60208801610efc565b9450604087013567ffffffffffffffff80821115610fa757600080fd5b610fb38a838b01610f18565b90965094506060890135915080821115610fcc57600080fd5b50610fd989828a01610f18565b979a9699509497509295939492505050565b60008060008060006060868803121561100357600080fd5b85359450602086013567ffffffffffffffff8082111561102257600080fd5b61102e89838a01610f18565b9096509450604088013591508082111561104757600080fd5b5061105488828901610f18565b969995985093965092949392505050565b60006020828403121561107757600080fd5b5035919050565b6000815180845260005b818110156110a457602081850181015186830182015201611088565b506000602082860101526020601f19601f83011685010191505092915050565b6001600160a01b0386811682528516602082015260a0604082018190526000906110f09083018661107e565b8281036060840152611102818661107e565b9150508260808301529695505050505050565b6000806040838503121561112857600080fd5b8235915061113860208401610efc565b90509250929050565b60006020828403121561115357600080fd5b610ef582610efc565b634e487b7160e01b600052604160045260246000fd5b600181811c9082168061118657607f821691505b6020821081036111a657634e487b7160e01b600052602260045260246000fd5b50919050565b601f821115610947576000816000526020600020601f850160051c810160208610156111d55750805b601f850160051c820191505b818110156111f4578281556001016111e1565b505050505050565b815167ffffffffffffffff8111156112165761121661115c565b61122a816112248454611172565b846111ac565b602080601f83116001811461125f57600084156112475750858301515b600019600386901b1c1916600185901b1785556111f4565b600085815260208120601f198616915b8281101561128e5788860151825594840194600190910190840161126f565b50858210156112ac5787850151600019600388901b60f8161c191681555b5050505050600190811b01905550565b81835281816020850137506000828201602090810191909152601f909101601f19169091010190565b6020815260006112f96020830184866112bc565b949350505050565b6020808252600990820152681b9bdd08199bdd5b9960ba1b604082015260600190565b67ffffffffffffffff83111561133c5761133c61115c565b6113508361134a8354611172565b836111ac565b6000601f841160018114611384576000851561136c5750838201355b600019600387901b1c1916600186901b1783556113de565b600083815260209020601f19861690835b828110156113b55786850135825560209485019460019092019101611395565b50868210156113d25760001960f88860031b161c19848701351681555b505060018560011b0183555b5050505050565b6040815260006113f96040830186886112bc565b828103602084015261140c8185876112bc565b97965050505050505056fe0af1dac7dea2fd7f7738119cec7df099dfad49aa9d2e7d17ba6b60f63ae7411fa49807205ce4d355092ef5a8a18f56e8913cf4a201fbe287825b095693c21775a26469706673582212206db14bc220a18dce056e655871738c3d2299cd5aea3a4d41738356383486c70664736f6c63430008180033",
  "linkReferences": {},
  "deployedLinkReferences": {}
}