{"contracts/HealthLedger.sol":{"HealthLedger":{"abi":[{"inputs":[{"internalType":"address","name":"admin","type":"address"}],"stateMutability":"nonpayable","type":"constructor"},{"inputs":[],"name":"AccessControlBadConfirmation","type":"error"},{"inputs":[{"internalType":"address","name":"account","type":"address"},{"internalType":"bytes32","name":"neededRole","type":"bytes32"}],"name":"AccessControlUnauthorizedAccount","type":"error"},{"anonymous":false,"inputs":[{"indexed":true,"internalType":"bytes32","name":"recordId","type":"bytes32"},{"indexed":true,"internalType":"address","name":"grantee","type":"address"},{"indexed":true,"internalType":"address","name":"granter","type":"address"}],"name":"AccessGranted","type":"event"},{"anonymous":false,"inputs":[{"indexed":true,"internalType":"bytes32","name":"recordId","type":"bytes32"},{"indexed":true,"internalType":"address","name":"grantee","type":"address"},{"indexed":true,"internalType":"address","name":"revoker","type":"address"}],"name":"AccessRevoked","type":"event"},{"anonymous":false,"inputs":[{"indexed":true,"internalType":"bytes32","name":"recordId","type":"bytes32"},{"indexed":true,"internalType":"address","name":"patient","type":"address"},{"indexed":true,"internalType":"address","name":"createdBy","type":"address"},{"indexed":false,"internalType":"string","name":"cid","type":"string"}],"name":"RecordCreated","type":"event"},{"anonymous":false,"inputs":[{"indexed":true,"internalType":"bytes32","name":"recordId","type":"bytes32"},{"indexed":false,"internalType":"string","name":"newCid","type":"string"},{"indexed":false,"internalType":"string","name":"newMeta","type":"string"},{"indexed":true,"internalType":"address","name":"updater","type":"address"}],"name":"RecordUpdated","type":"event"},{"anonymous":false,"inputs":[{"indexed":true,"internalType":"bytes32","name":"role","type":"bytes32"},{"indexed":true,"internalType":"bytes32","name":"previousAdminRole","type":"bytes32"},{"indexed":true,"internalType":"bytes32","name":"newAdminRole","type":"bytes32"}],"name":"RoleAdminChanged","type":"event"},{"anonymous":false,"inputs":[{"indexed":true,"internalType":"bytes32","name":"role","type":"bytes32"},{"indexed":true,"internalType":"address","name":"account","type":"address"},{"indexed":true,"internalType":"address","name":"sender","type":"address"}],"name":"RoleGranted","type":"event"},{"anonymous":false,"inputs":[{"indexed":true,"internalType":"bytes32","name":"role","type":"bytes32"},{"indexed":true,"internalType":"address","name":"account","type":"address"},{"indexed":true,"internalType":"address","name":"sender","type":"address"}],"name":"RoleRevoked","type":"event"},{"inputs":[],"name":"ADMIN_ROLE","outputs":[{"internalType":"bytes32","name":"","type":"bytes32"}],"stateMutability":"view","type":"function"},{"inputs":[],"name":"DEFAULT_ADMIN_ROLE","outputs":[{"internalType":"bytes32","name":"","type":"bytes32"}],"stateMutability":"view","type":"function"},{"inputs":[],"name":"DOCTOR_ROLE","outputs":[{"internalType":"bytes32","name":"","type":"bytes32"}],"stateMutability":"view","type":"function"},{"inputs":[{"internalType":"address","name":"account","type":"address"}],"name":"addDoctor","outputs":[],"stateMutability":"nonpayable","type":"function"},{"inputs":[{"internalType":"bytes32","name":"recordId","type":"bytes32"},{"internalType":"address","name":"patient","type":"address"},{"internalType":"string","name":"cid","type":"string"},{"internalType":"string","name":"meta","type":"string"}],"name":"createRecord","outputs":[],"stateMutability":"nonpayable","type":"function"},{"inputs":[{"internalType":"bytes32","name":"recordId","type":"bytes32"}],"name":"getRecord","outputs":[{"internalType":"address","name":"patient","type":"address"},{"internalType":"address","name":"createdBy","type":"address"},{"internalType":"string","name":"cid","type":"string"},{"internalType":"string","name":"meta","type":"string"},{"internalType":"uint256","name":"createdAt","type":"uint256"}],"stateMutability":"view","type":"function"},{"inputs":[{"internalType":"bytes32","name":"role","type":"bytes32"}],"name":"getRoleAdmin","outputs":[{"internalType":"bytes32","name":"","type":"bytes32"}],"stateMutability":"view","type":"function"},{"inputs":[{"internalType":"bytes32","name":"recordId","type":"bytes32"},{"internalType":"address","name":"grantee","type":"address"}],"name":"grantAccess","outputs":[],"stateMutability":"nonpayable","type":"function"},{"inputs":[{"internalType":"bytes32","name":"role","type":"bytes32"},{"internalType":"address","name":"account","type":"address"}],"name":"grantRole","outputs":[],"stateMutability":"nonpayable","type":"function"},{"inputs":[{"internalType":"bytes32","name":"recordId","type":"bytes32"},{"internalType":"address","name":"account","type":"address"}],"name":"hasAccess","outputs":[{"internalType":"bool","name":"","type":"bool"}],"stateMutability":"view","type":"function"},{"inputs":[{"internalType":"bytes32","name":"role","type":"bytes32"},{"internalType":"address","name":"account","type":"address"}],"name":"hasRole","outputs":[{"internalType":"bool","name":"","type":"bool"}],"stateMutability":"view","type":"function"},{"inputs":[{"internalType":"address","name":"account","type":"address"}],"name":"removeDoctor","outputs":[],"stateMutability":"nonpayable","type":"function"},{"inputs":[{"internalType":"bytes32","name":"role","type":"bytes32"},{"internalType":"address","name":"callerConfirmation","type":"address"}],"name":"renounceRole","outputs":[],"stateMutability":"nonpayable","type":"function"},{"inputs":[{"internalType":"bytes32","name":"recordId","type":"bytes32"},{"internalType":"address","name":"grantee","type":"address"}],"name":"revokeAccess","outputs":[],"stateMutability":"nonpayable","type":"function"},{"inputs":[{"internalType":"bytes32","name":"role","type":"bytes32"},{"internalType":"address","name":"account","type":"address"}],"name":"revokeRole","outputs":[],"stateMutability":"nonpayable","type":"function"},{"inputs":[{"internalType":"bytes4","name":"interfaceId","type":"bytes4"}],"name":"supportsInterface","outputs":[{"internalType":"bool","name":"","type":"bool"}],"stateMutability":"view","type":"function"},{"inputs":[{"internalType":"bytes32","name":"recordId","type":"bytes32"},{"internalType":"string","name":"newCid","type":"string"},{"internalType":"string","name":"newMeta","type":"string"}],"name":"updateRecord","outputs":[],"stateMutability":"nonpayable","type":"function"}],"evm":{"bytecode":{"linkReferences":{},"object":"60806040523480156200001157600080fd5b506040516200164038038062001640833981016040819052620000349162000171565b6001600160a01b038116620000805760405162461bcd60e51b815260206004820152600e60248201526d18591b5a5b881c995c5d5a5c995960921b604482015260640160405180910390fd5b6200008d600082620000c2565b50620000ba7fa49807205ce4d355092ef5a8a18f56e8913cf4a201fbe287825b095693c2177582620000c2565b5050620001a3565b6000828152602081815260408083206001600160a01b038516845290915281205460ff1662000167576000838152602081815260408083206001600160a01b03861684529091529020805460ff191660011790556200011e3390565b6001600160a01b0316826001600160a01b0316847f2f8788117e7eff1d82e926ec794901d17c78024a50270940304540a733656f0d60405160405180910390a45060016200016b565b5060005b92915050565b6000602082840312156200018457600080fd5b81516001600160a01b03811681146200019c57600080fd5b9392505050565b61148d80620001b36000396000f3fe608060405234801561001057600080fd5b506004361061010b5760003560e01c80634780468f116100a257806391d148541161007157806391d148541461023c57806398fc90e91461024f578063a217fddf14610262578063d547741f1461026a578063fec331f21461027d57600080fd5b80634780468f146101ee57806375b238fc1461020157806383177db3146102165780638d53b2081461022957600080fd5b8063248a9ca3116100de578063248a9ca3146101845780632f2ff15d146101b557806336568abe146101c857806340554c3a146101db57600080fd5b806301ffc9a71461011057806307b702ba146101385780630fdf5ca71461014d578063213681cd14610160575b600080fd5b61012361011e366004610ecb565b610292565b60405190151581526020015b60405180910390f35b61014b610146366004610f61565b6102c9565b005b61014b61015b366004610feb565b610583565b61017361016e366004611065565b6106c2565b60405161012f9594939291906110c4565b6101a7610192366004611065565b60009081526020819052604090206001015490565b60405190815260200161012f565b61014b6101c3366004611115565b6108e9565b61014b6101d6366004611115565b610914565b61014b6101e9366004611115565b61094c565b61014b6101fc366004611141565b610a98565b6101a760008051602061143883398151915281565b610123610224366004611115565b610b15565b61014b610237366004611115565b610bbc565b61012361024a366004611115565b610cc1565b61014b61025d366004611141565b610cea565b6101a7600081565b61014b610278366004611115565b610d63565b6101a760008051602061141883398151915281565b60006001600160e01b03198216637965db0b60e01b14806102c357506301ffc9a760e01b6001600160e01b03198316145b92915050565b6102e160008051602061141883398151915233610cc1565b806102ff57506102ff60008051602061143883398151915233610cc1565b806103105750610310600033610cc1565b6103545760405162461bcd60e51b815260206004820152601060248201526f3737ba103237b1ba37b917b0b236b4b760811b60448201526064015b60405180910390fd5b6001600160a01b03851661039d5760405162461bcd60e51b815260206004820152601060248201526f1c185d1a595b9d081c995c5d5a5c995960821b604482015260640161034b565b600086815260016020526040902060040154156103e55760405162461bcd60e51b815260206004820152600660248201526565786973747360d01b604482015260640161034b565b6040518060a00160405280866001600160a01b03168152602001336001600160a01b0316815260200185858080601f016020809104026020016040519081016040528093929190818152602001838380828437600092019190915250505090825250604080516020601f8601819004810282018101909252848152918101919085908590819084018382808284376000920182905250938552505042602093840152508881526001808352604091829020845181546001600160a01b03199081166001600160a01b0392831617835594860151928201805490951692169190911790925582015160028201906104db90826111fc565b50606082015160038201906104f090826111fc565b506080919091015160049091015560008681526002602090815260408083206001600160a01b03891680855292528083208054600160ff1991821681179092553380865294839020805490911690911790555188907e73d3c2a84f8f8e279a002e4d9d8aed780efae1e49ef555bd671d416a3f9d869061057390899089906112e5565b60405180910390a4505050505050565b600085815260016020526040812060048101549091036105b55760405162461bcd60e51b815260040161034b90611301565b6105cd60008051602061143883398151915233610cc1565b806105de57506105de600033610cc1565b806105f2575080546001600160a01b031633145b806106165750600086815260026020908152604080832033845290915290205460ff165b6106525760405162461bcd60e51b815260206004820152600d60248201526c3737903832b936b4b9b9b4b7b760991b604482015260640161034b565b60028101610661858783611324565b5060038101610671838583611324565b50336001600160a01b0316867f8f9586b5cb9b032c0c4e4176d5e760b09b3ab8ebef35a13a6edd4e28f13d8584878787876040516106b294939291906113e5565b60405180910390a3505050505050565b6000818152600160205260408120600481015482916060918291849182036106fc5760405162461bcd60e51b815260040161034b90611301565b61071460008051602061143883398151915233610cc1565b806107255750610725600033610cc1565b80610739575080546001600160a01b031633145b8061075d5750600087815260026020908152604080832033845290915290205460ff165b6107955760405162461bcd60e51b81526020600482015260096024820152686e6f2061636365737360b81b604482015260640161034b565b8054600182015460048301546002840180546001600160a01b0394851694909316929091600386019183906107c990611172565b80601f01602080910402602001604051908101604052809291908181526020018280546107f590611172565b80156108425780601f1061081757610100808354040283529160200191610842565b820191906000526020600020905b81548152906001019060200180831161082557829003601f168201915b5050505050925081805461085590611172565b80601f016020809104026020016040519081016040528092919081815260200182805461088190611172565b80156108ce5780601f106108a3576101008083540402835291602001916108ce565b820191906000526020600020905b8154815290600101906020018083116108b157829003601f168201915b50505050509150955095509550955095505091939590929450565b60008281526020819052604090206001015461090481610d88565b61090e8383610d95565b50505050565b6001600160a01b038116331461093d5760405163334bd91960e11b815260040160405180910390fd5b6109478282610e27565b505050565b6000828152600160205260408120600481015490910361097e5760405162461bcd60e51b815260040161034b90611301565b6001600160a01b0382166109c25760405162461bcd60e51b815260206004820152600b60248201526a626164206772616e74656560a81b604482015260640161034b565b80546001600160a01b03163314806109ed57506109ed60008051602061143883398151915233610cc1565b806109fe57506109fe600033610cc1565b610a3c5760405162461bcd60e51b815260206004820152600f60248201526e3737ba1037bbb732b917b0b236b4b760891b604482015260640161034b565b60008381526002602090815260408083206001600160a01b0386168085529252808320805460ff1916600117905551339286917f7aeffe35f64b55a7c424c5fccc3fba0f3ac4ebd764cc737855b8734834458f2b9190a4505050565b610ab060008051602061143883398151915233610cc1565b80610ac15750610ac1600033610cc1565b610af95760405162461bcd60e51b81526020600482015260096024820152683737ba1030b236b4b760b91b604482015260640161034b565b610b1160008051602061141883398151915282610d95565b5050565b600082815260016020526040812060048101548203610b385760009150506102c3565b80546001600160a01b0390811690841603610b575760019150506102c3565b610b6f60008051602061143883398151915284610cc1565b80610b805750610b80600084610cc1565b15610b8f5760019150506102c3565b505060009182526002602090815260408084206001600160a01b0393909316845291905290205460ff1690565b60008281526001602052604081206004810154909103610bee5760405162461bcd60e51b815260040161034b90611301565b80546001600160a01b0316331480610c195750610c1960008051602061143883398151915233610cc1565b80610c2a5750610c2a600033610cc1565b610c685760405162461bcd60e51b815260206004820152600f60248201526e3737ba1037bbb732b917b0b236b4b760891b604482015260640161034b565b60008381526002602090815260408083206001600160a01b0386168085529252808320805460ff1916905551339286917ffab19bdeacf1ea13315b1da3f79a3403fe4f16793b6a03eeff9e0bbbea24fe5f9190a4505050565b6000918252602082815260408084206001600160a01b0393909316845291905290205460ff1690565b610d0260008051602061143883398151915233610cc1565b80610d135750610d13600033610cc1565b610d4b5760405162461bcd60e51b81526020600482015260096024820152683737ba1030b236b4b760b91b604482015260640161034b565b610b1160008051602061141883398151915282610e27565b600082815260208190526040902060010154610d7e81610d88565b61090e8383610e27565b610d928133610e92565b50565b6000610da18383610cc1565b610e1f576000838152602081815260408083206001600160a01b03861684529091529020805460ff19166001179055610dd73390565b6001600160a01b0316826001600160a01b0316847f2f8788117e7eff1d82e926ec794901d17c78024a50270940304540a733656f0d60405160405180910390a45060016102c3565b5060006102c3565b6000610e338383610cc1565b15610e1f576000838152602081815260408083206001600160a01b0386168085529252808320805460ff1916905551339286917ff6391f5c32d9c69d2a47ea670b442974b53935d1edc7fd64eb21e047a839171b9190a45060016102c3565b610e9c8282610cc1565b610b115760405163e2517d3f60e01b81526001600160a01b03821660048201526024810183905260440161034b565b600060208284031215610edd57600080fd5b81356001600160e01b031981168114610ef557600080fd5b9392505050565b80356001600160a01b0381168114610f1357600080fd5b919050565b60008083601f840112610f2a57600080fd5b50813567ffffffffffffffff811115610f4257600080fd5b602083019150836020828501011115610f5a57600080fd5b9250929050565b60008060008060008060808789031215610f7a57600080fd5b86359550610f8a60208801610efc565b9450604087013567ffffffffffffffff80821115610fa757600080fd5b610fb38a838b01610f18565b90965094506060890135915080821115610fcc57600080fd5b50610fd989828a01610f18565b979a9699509497509295939492505050565b60008060008060006060868803121561100357600080fd5b85359450602086013567ffffffffffffffff8082111561102257600080fd5b61102e89838a01610f18565b9096509450604088013591508082111561104757600080fd5b5061105488828901610f18565b969995985093965092949392505050565b60006020828403121561107757600080fd5b5035919050565b6000815180845260005b818110156110a457602081850181015186830182015201611088565b506000602082860101526020601f19601f83011685010191505092915050565b6001600160a01b0386811682528516602082015260a0604082018190526000906110f09083018661107e565b8281036060840152611102818661107e565b9150508260808301529695505050505050565b6000806040838503121561112857600080fd5b8235915061113860208401610efc565b90509250929050565b60006020828403121561115357600080fd5b610ef582610efc565b634e487b7160e01b600052604160045260246000fd5b600181811c9082168061118657607f821691505b6020821081036111a657634e487b7160e01b600052602260045260246000fd5b50919050565b601f821115610947576000816000526020600020601f850160051c810160208610156111d55750805b601f850160051c820191505b818110156111f4578281556001016111e1565b505050505050565b815167ffffffffffffffff8111156112165761121661115c565b61122a816112248454611172565b846111ac565b602080601f83116001811461125f57600084156112475750858301515b600019600386901b1c1916600185901b1785556111f4565b600085815260208120601f198616915b8281101561128e5788860151825594840194600190910190840161126f565b50858210156112ac5787850151600019600388901b60f8161c191681555b5050505050600190811b01905550565b81835281816020850137506000828201602090810191909152601f909101601f19169091010190565b6020815260006112f96020830184866112bc565b949350505050565b6020808252600990820152681b9bdd08199bdd5b9960ba1b604082015260600190565b67ffffffffffffffff83111561133c5761133c61115c565b6113508361134a8354611172565b836111ac565b6000601f841160018114611384576000851561136c5750838201355b600019600387901b1c1916600186901b1783556113de565b600083815260209020601f19861690835b828110156113b55786850135825560209485019460019092019101611395565b50868210156113d25760001960f88860031b161c19848701351681555b505060018560011b0183555b5050505050565b6040815260006113f96040830186886112bc565b828103602084015261140c8185876112bc565b97965050505050505056fe0af1dac7dea2fd7f7738119cec7df099dfad49aa9d2e7d17ba6b60f63ae7411fa49807205ce4d355092ef5a8a18f56e8913cf4a201fbe287825b095693c21775a2646970667358221220a0a7970aed703db08fda55da320eadb382d961eb594beb9846b0833ed662013364736f6c63430008180033","opcodes":"PUSH1 0x80 PUSH1 0x40 MSTORE CALLVALUE DUP1 ISZERO PUSH3 0x11 JUMPI PUSH1 0x0 DUP1 REVERT JUMPDEST POP PUSH1 0x40 MLOAD PUSH3 0x1640 CODESIZE SUB DUP1 PUSH3 0x1640 DUP4 CODECOPY DUP2 ADD PUSH1 0x40 DUP2 SWAP1 MSTORE PUSH3 0x34 SWAP2 PUSH3 0x171 JUMP JUMPDEST PUSH1 0x1 PUSH1 0x1 PUSH1 0xA0 SHL SUB DUP2 AND PUSH3 0x80 JUMPI PUSH1 0x40 MLOAD PUSH3 0x461BCD PUSH1 0xE5 SHL DUP2 MSTORE PUSH1 0x20 PUSH1 0x4 DUP3 ADD MSTORE PUSH1 0xE PUSH1 0x24 DUP3 ADD MSTORE PUSH14 0x18591B5A5B881C995C5D5A5C9959 PUSH1 0x92 SHL PUSH1 0x44 DUP3 ADD MSTORE PUSH1 0x64 ADD PUSH1 0x40 MLOAD DUP1 SWAP2 SUB SWAP1 REVERT JUMPDEST PUSH3 0x8D PUSH1 0x0 DUP3 PUSH3 0xC2 JUMP JUMPDEST POP PUSH3 0xBA PUSH32 0xA49807205CE4D355092EF5A8A18F56E8913CF4A201FBE287825B095693C21775 DUP3 PUSH3 0xC2 JUMP JUMPDEST POP POP PUSH3 0x1A3 JUMP JUMPDEST PUSH1 0x0 DUP3 DUP2 MSTORE PUSH1 0x20 DUP2 DUP2 MSTORE PUSH1 0x40 DUP1 DUP4 KECCAK256 PUSH1 0x1 PUSH1 0x1 PUSH1 0xA0 SHL SUB DUP6 AND DUP5 MSTORE SWAP1 SWAP2 MSTORE DUP2 KECCAK256 SLOAD PUSH1 0xFF AND PUSH3 0x167 JUMPI PUSH1 0x0 DUP4 DUP2 MSTORE PUSH1 0x20 DUP2 DUP2 MSTORE PUSH1 0x40 DUP1 DUP4 KECCAK256 PUSH1 0x1 PUSH1 0x1 PUSH1 0xA0 SHL SUB DUP7 AND DUP5 MSTORE SWAP1 SWAP2 MSTORE SWAP1 KECCAK256 DUP1 SLOAD PUSH1 0xFF NOT AND PUSH1 0x1 OR SWAP1 SSTORE PUSH3 0x11E CALLER SWAP1 JUMP JUMPDEST PUSH1 0x1 PUSH1 0x1 PUSH1 0xA0 SHL SUB AND DUP3 PUSH1 0x1 PUSH1 0x1 PUSH1 0xA0 SHL SUB AND DUP5 PUSH32 0x2F8788117E7EFF1D82E926EC794901D17C78024A50270940304540A733656F0D PUSH1 0x40 MLOAD PUSH1 0x40 MLOAD DUP1 SWAP2 SUB SWAP1 LOG4 POP PUSH1 0x1 PUSH3 0x16B JUMP JUMPDEST POP PUSH1 0x0 JUMPDEST SWAP3 SWAP2 POP POP JUMP JUMPDEST PUSH1 0x0 PUSH1 0x20 DUP3 DUP5 SUB SLT ISZERO PUSH3 0x184 JUMPI PUSH1 0x0 DUP1 REVERT JUMPDEST DUP2 MLOAD PUSH1 0x1 PUSH1 0x1 PUSH1 0xA0 SHL SUB DUP2 AND DUP2 EQ PUSH3 0x19C JUMPI PUSH1 0x0 DUP1 REVERT JUMPDEST SWAP4 SWAP3 POP POP POP JUMP JUMPDEST PUSH2 0x148D DUP1 PUSH3 0x1B3 PUSH1 0x0 CODECOPY PUSH1 0x0 RETURN INVALID PUSH1 0x80 PUSH1 0x40 MSTORE CALLVALUE DUP1 ISZERO PUSH2 0x10 JUMPI PUSH1 0x0 DUP1 REVERT JUMPDEST POP PUSH1 0x4 CALLDATASIZE LT PUSH2 0x10B JUMPI PUSH1 0x0 CALLDATALOAD PUSH1 0xE0 SHR DUP1 PUSH4 0x4780468F GT PUSH2 0xA2 JUMPI DUP1 PUSH4 0x91D14854 GT PUSH2 0x71 JUMPI DUP1 PUSH4 0x91D14854 EQ PUSH2 0x23C JUMPI DUP1 PUSH4 0x98FC90E9 EQ PUSH2 0x24F JUMPI DUP1 PUSH4 0xA217FDDF EQ PUSH2 0x262 JUMPI DUP1 PUSH4 0xD547741F EQ PUSH2 0x26A JUMPI DUP1 PUSH4 0xFEC331F2 EQ PUSH2 0x27D JUMPI PUSH1 0x0 DUP1 REVERT JUMPDEST DUP1 PUSH4 0x4780468F EQ PUSH2 0x1EE JUMPI DUP1 PUSH4 0x75B238FC EQ PUSH2 0x201 JUMPI DUP1 PUSH4 0x83177DB3 EQ PUSH2 0x216 JUMPI DUP1 PUSH4 0x8D53B208 EQ PUSH2 0x229 JUMPI PUSH1 0x0 DUP1 REVERT JUMPDEST DUP1 PUSH4 0x248A9CA3 GT PUSH2 0xDE JUMPI DUP1 PUSH4 0x248A9CA3 EQ PUSH2 0x184 JUMPI DUP1 PUSH4 0x2F2FF15D EQ PUSH2 0x1B5 JUMPI DUP1 PUSH4 0x36568ABE EQ PUSH2 0x1C8 JUMPI DUP1 PUSH4 0x40554C3A EQ PUSH2 0x1DB JUMPI PUSH1 0x0 DUP1 REVERT JUMPDEST DUP1 PUSH4 0x1FFC9A7 EQ PUSH2 0x110 JUMPI DUP1 PUSH4 0x7B702BA EQ PUSH2 0x138 JUMPI DUP1 PUSH4 0xFDF5CA7 EQ PUSH2 0x14D JUMPI DUP1 PUSH4 0x213681CD EQ PUSH2 0x160 JUMPI JUMPDEST PUSH1 0x0 DUP1 REVERT JUMPDEST PUSH2 0x123 PUSH2 0x11E CALLDATASIZE PUSH1 0x4 PUSH2 0xECB JUMP JUMPDEST PUSH2 0x292 JUMP JUMPDEST PUSH1 0x40 MLOAD SWAP1 ISZERO ISZERO DUP2 MSTORE PUSH1 0x20 ADD JUMPDEST PUSH1 0x40 MLOAD DUP1 SWAP2 SUB SWAP1 RETURN JUMPDEST PUSH2 0x14B PUSH2 0x146 CALLDATASIZE PUSH1 0x4 PUSH2 0xF61 JUMP JUMPDEST PUSH2 0x2C9 JUMP JUMPDEST STOP JUMPDEST PUSH2 0x14B PUSH2 0x15B CALLDATASIZE PUSH1 0x4 PUSH2 0xFEB JUMP JUMPDEST PUSH2 0x583 JUMP JUMPDEST PUSH2 0x173 PUSH2 0x16E CALLDATASIZE PUSH1 0x4 PUSH2 0x1065 JUMP JUMPDEST PUSH2 0x6C2 JUMP JUMPDEST PUSH1 0x40 MLOAD PUSH2 0x12F SWAP6 SWAP5 SWAP4 SWAP3 SWAP2 SWAP1 PUSH2 0x10C4 JUMP JUMPDEST PUSH2 0x1A7 PUSH2 0x192 CALLDATASIZE PUSH1 0x4 PUSH2 0x1065 JUMP JUMPDEST PUSH1 0x0 SWAP1 DUP2 MSTORE PUSH1 0x20 DUP2 SWAP1 MSTORE PUSH1 0x40 SWAP1 KECCAK256 PUSH1 0x1 ADD SLOAD SWAP1 JUMP JUMPDEST PUSH1 0x40 MLOAD SWAP1 DUP2 MSTORE PUSH1 0x20 ADD PUSH2 0x12F JUMP JUMPDEST PUSH2 0x14B PUSH2 0x1C3 CALLDATASIZE PUSH1 0x4 PUSH2 0x1115 JUMP JUMPDEST PUSH2 0x8E9 JUMP JUMPDEST PUSH2 0x14B PUSH2 0x1D6 CALLDATASIZE PUSH1 0x4 PUSH2 0x1115 JUMP JUMPDEST PUSH2 0x914 JUMP JUMPDEST PUSH2 0x14B PUSH2 0x1E9 CALLDATASIZE PUSH1 0x4 PUSH2 0x1115 JUMP JUMPDEST PUSH2 0x94C JUMP JUMPDEST PUSH2 0x14B PUSH2 0x1FC CALLDATASIZE PUSH1 0x4 PUSH2 0x1141 JUMP JUMPDEST PUSH2 0xA98 JUMP JUMPDEST PUSH2 0x1A7 PUSH1 0x0 DUP1 MLOAD PUSH1 0x20 PUSH2 0x1438 DUP4 CODECOPY DUP2 MLOAD SWAP2 MSTORE DUP2 JUMP JUMPDEST PUSH2 0x123 PUSH2 0x224 CALLDATASIZE PUSH1 0x4 PUSH2 0x1115 JUMP JUMPDEST PUSH2 0xB15 JUMP JUMPDEST PUSH2 0x14B PUSH2 0x237 CALLDATASIZE PUSH1 0x4 PUSH2 0x1115 JUMP JUMPDEST PUSH2 0xBBC JUMP JUMPDEST PUSH2 0x123 PUSH2 0x24A CALLDATASIZE PUSH1 0x4 PUSH2 0x1115 JUMP JUMPDEST PUSH2 0xCC1 JUMP JUMPDEST PUSH2 0x14B PUSH2 0x25D CALLDATASIZE PUSH1 0x4 PUSH2 0x1141 JUMP JUMPDEST PUSH2 0xCEA JUMP JUMPDEST PUSH2 0x1A7 PUSH1 0x0 DUP2 JUMP JUMPDEST PUSH2 0x14B PUSH2 0x278 CALLDATASIZE PUSH1 0x4 PUSH2 0x1115 JUMP JUMPDEST PUSH2 0xD63 JUMP JUMPDEST PUSH2 0x1A7 PUSH1 0x0 DUP1 MLOAD PUSH1 0x20 PUSH2 0x1418 DUP4 CODECOPY DUP2 MLOAD SWAP2 MSTORE DUP2 JUMP JUMPDEST PUSH1 0x0 PUSH1 0x1 PUSH1 0x1 PUSH1 0xE0 SHL SUB NOT DUP3 AND PUSH4 0x7965DB0B PUSH1 0xE0 SHL EQ DUP1 PUSH2 0x2C3 JUMPI POP PUSH4 0x1FFC9A7 PUSH1 0xE0 SHL PUSH1 0x1 PUSH1 0x1 PUSH1 0xE0 SHL SUB NOT DUP4 AND EQ JUMPDEST SWAP3 SWAP2 POP POP JUMP JUMPDEST PUSH2 0x2E1 PUSH1 0x0 DUP1 MLOAD PUSH1 0x20 PUSH2 0x1418 DUP4 CODECOPY DUP2 MLOAD SWAP2 MSTORE CALLER PUSH2 0xCC1 JUMP JUMPDEST DUP1 PUSH2 0x2FF JUMPI POP PUSH2 0x2FF PUSH1 0x0 DUP1 MLOAD PUSH1 0x20 PUSH2 0x1438 DUP4 CODECOPY DUP2 MLOAD SWAP2 MSTORE CALLER PUSH2 0xCC1 JUMP JUMPDEST DUP1 PUSH2 0x310 JUMPI POP PUSH2 0x310 PUSH1 0x0 CALLER PUSH2 0xCC1 JUMP JUMPDEST PUSH2 0x354 JUMPI PUSH1 0x40 MLOAD PUSH3 0x461BCD PUSH1 0xE5 SHL DUP2 MSTORE PUSH1 0x20 PUSH1 0x4 DUP3 ADD MSTORE PUSH1 0x10 PUSH1 0x24 DUP3 ADD MSTORE PUSH16 0x3737BA103237B1BA37B917B0B236B4B7 PUSH1 0x81 SHL PUSH1 0x44 DUP3 ADD MSTORE PUSH1 0x64 ADD JUMPDEST PUSH1 0x40 MLOAD DUP1 SWAP2 SUB SWAP1 REVERT JUMPDEST PUSH1 0x1 PUSH1 0x1 PUSH1 0xA0 SHL SUB DUP6 AND PUSH2 0x39D JUMPI PUSH1 0x40 MLOAD PUSH3 0x461BCD PUSH1 0xE5 SHL DUP2 MSTORE PUSH1 0x20 PUSH1 0x4 DUP3 ADD MSTORE PUSH1 0x10 PUSH1 0x24 DUP3 ADD MSTORE PUSH16 0x1C185D1A595B9D081C995C5D5A5C9959 PUSH1 0x82 SHL PUSH1 0x44 DUP3 ADD MSTORE PUSH1 0x64 ADD PUSH2 0x34B JUMP JUMPDEST PUSH1 0x0 DUP7 DUP2 MSTORE PUSH1 0x1 PUSH1 0x20 MSTORE PUSH1 0x40 SWAP1 KECCAK256 PUSH1 0x4 ADD SLOAD ISZERO PUSH2 0x3E5 JUMPI PUSH1 0x40 MLOAD PUSH3 0x461BCD PUSH1 0xE5 SHL DUP2 MSTORE PUSH1 0x20 PUSH1 0x4 DUP3 ADD MSTORE PUSH1 0x6 PUSH1 0x24 DUP3 ADD MSTORE PUSH6 0x657869737473 PUSH1 0xD0 SHL PUSH1 0x44 DUP3 ADD MSTORE PUSH1 0x64 ADD PUSH2 0x34B JUMP JUMPDEST PUSH1 0x40 MLOAD DUP1 PUSH1 0xA0 ADD PUSH1 0x40 MSTORE DUP1 DUP7 PUSH1 0x1 PUSH1 0x1 PUSH1 0xA0 SHL SUB AND DUP2 MSTORE PUSH1 0x20 ADD CALLER PUSH1 0x1 PUSH1 0x1 PUSH1 0xA0 SHL SUB AND DUP2 MSTORE PUSH1 0x20 ADD DUP6 DUP6 DUP1 DUP1 PUSH1 0x1F ADD PUSH1 0x20 DUP1 SWAP2 DIV MUL PUSH1 0x20 ADD PUSH1 0x40 MLOAD SWAP1 DUP2 ADD PUSH1 0x40 MSTORE DUP1 SWAP4 SWAP3 SWAP2 SWAP1 DUP2 DUP2 MSTORE PUSH1 0x20 ADD DUP4 DUP4 DUP1 DUP3 DUP5 CALLDATACOPY PUSH1 0x0 SWAP3 ADD SWAP2 SWAP1 SWAP2 MSTORE POP POP POP SWAP1 DUP3 MSTORE POP PUSH1 0x40 DUP1 MLOAD PUSH1 0x20 PUSH1 0x1F DUP7 ADD DUP2 SWAP1 DIV DUP2 MUL DUP3 ADD DUP2 ADD SWAP1 SWAP3 MSTORE DUP5 DUP2 MSTORE SWAP2 DUP2 ADD SWAP2 SWAP1 DUP6 SWAP1 DUP6 SWAP1 DUP2 SWAP1 DUP5 ADD DUP4 DUP3 DUP1 DUP3 DUP5 CALLDATACOPY PUSH1 0x0 SWAP3 ADD DUP3 SWAP1 MSTORE POP SWAP4 DUP6 MSTORE POP POP TIMESTAMP PUSH1 0x20 SWAP4 DUP5 ADD MSTORE POP DUP9 DUP2 MSTORE PUSH1 0x1 DUP1 DUP4 MSTORE PUSH1 0x40 SWAP2 DUP3 SWAP1 KECCAK256 DUP5 MLOAD DUP2 SLOAD PUSH1 0x1 PUSH1 0x1 PUSH1 0xA0 SHL SUB NOT SWAP1 DUP2 AND PUSH1 0x1 PUSH1 0x1 PUSH1 0xA0 SHL SUB SWAP3 DUP4 AND OR DUP4 SSTORE SWAP5 DUP7 ADD MLOAD SWAP3 DUP3 ADD DUP1 SLOAD SWAP1 SWAP6 AND SWAP3 AND SWAP2 SWAP1 SWAP2 OR SWAP1 SWAP3 SSTORE DUP3 ADD MLOAD PUSH1 0x2 DUP3 ADD SWAP1 PUSH2 0x4DB SWAP1 DUP3 PUSH2 0x11FC JUMP JUMPDEST POP PUSH1 0x60 DUP3 ADD MLOAD PUSH1 0x3 DUP3 ADD SWAP1 PUSH2 0x4F0 SWAP1 DUP3 PUSH2 0x11FC JUMP JUMPDEST POP PUSH1 0x80 SWAP2 SWAP1 SWAP2 ADD MLOAD PUSH1 0x4 SWAP1 SWAP2 ADD SSTORE PUSH1 0x0 DUP7 DUP2 MSTORE PUSH1 0x2 PUSH1 0x20 SWAP1 DUP2 MSTORE PUSH1 0x40 DUP1 DUP4 KECCAK256 PUSH1 0x1 PUSH1 0x1 PUSH1 0xA0 SHL SUB DUP10 AND DUP1 DUP6 MSTORE SWAP3 MSTORE DUP1 DUP4 KECCAK256 DUP1 SLOAD PUSH1 0x1 PUSH1 0xFF NOT SWAP2 DUP3 AND DUP2 OR SWAP1 SWAP3 SSTORE CALLER DUP1 DUP7 MSTORE SWAP5 DUP4 SWAP1 KECCAK256 DUP1 SLOAD SWAP1 SWAP2 AND SWAP1 SWAP2 OR SWAP1 SSTORE MLOAD DUP9 SWAP1 PUSH31 0x73D3C2A84F8F8E279A002E4D9D8AED780EFAE1E49EF555BD671D416A3F9D86 SWAP1 PUSH2 0x573 SWAP1 DUP10 SWAP1 DUP10 SWAP1 PUSH2 0x12E5 JUMP JUMPDEST PUSH1 0x40 MLOAD DUP1 SWAP2 SUB SWAP1 LOG4 POP POP POP POP POP POP JUMP JUMPDEST PUSH1 0x0 DUP6 DUP2 MSTORE PUSH1 0x1 PUSH1 0x20 MSTORE PUSH1 0x40 DUP2 KECCAK256 PUSH1 0x4 DUP2 ADD SLOAD SWAP1 SWAP2 SUB PUSH2 0x5B5 JUMPI PUSH1 0x40 MLOAD PUSH3 0x461BCD PUSH1 0xE5 SHL DUP2 MSTORE PUSH1 0x4 ADD PUSH2 0x34B SWAP1 PUSH2 0x1301 JUMP JUMPDEST PUSH2 0x5CD PUSH1 0x0 DUP1 MLOAD PUSH1 0x20 PUSH2 0x1438 DUP4 CODECOPY DUP2 MLOAD SWAP2 MSTORE CALLER PUSH2 0xCC1 JUMP JUMPDEST DUP1 PUSH2 0x5DE JUMPI POP PUSH2 0x5DE PUSH1 0x0 CALLER PUSH2 0xCC1 JUMP JUMPDEST DUP1 PUSH2 0x5F2 JUMPI POP DUP1 SLOAD PUSH1 0x1 PUSH1 0x1 PUSH1 0xA0 SHL SUB AND CALLER EQ JUMPDEST DUP1 PUSH2 0x616 JUMPI POP PUSH1 0x0 DUP7 DUP2 MSTORE PUSH1 0x2 PUSH1 0x20 SWAP1 DUP2 MSTORE PUSH1 0x40 DUP1 DUP4 KECCAK256 CALLER DUP5 MSTORE SWAP1 SWAP2 MSTORE SWAP1 KECCAK256 SLOAD PUSH1 0xFF AND JUMPDEST PUSH2 0x652 JUMPI PUSH1 0x40 MLOAD PUSH3 0x461BCD PUSH1 0xE5 SHL DUP2 MSTORE PUSH1 0x20 PUSH1 0x4 DUP3 ADD MSTORE PUSH1 0xD PUSH1 0x24 DUP3 ADD MSTORE PUSH13 0x3737903832B936B4B9B9B4B7B7 PUSH1 0x99 SHL PUSH1 0x44 DUP3 ADD MSTORE PUSH1 0x64 ADD PUSH2 0x34B JUMP JUMPDEST PUSH1 0x2 DUP2 ADD PUSH2 0x661 DUP6 DUP8 DUP4 PUSH2 0x1324 JUMP JUMPDEST POP PUSH1 0x3 DUP2 ADD PUSH2 0x671 DUP4 DUP6 DUP4 PUSH2 0x1324 JUMP JUMPDEST POP CALLER PUSH1 0x1 PUSH1 0x1 PUSH1 0xA0 SHL SUB AND DUP7 PUSH32 0x8F9586B5CB9B032C0C4E4176D5E760B09B3AB8EBEF35A13A6EDD4E28F13D8584 DUP8 DUP8 DUP8 DUP8 PUSH1 0x40 MLOAD PUSH2 0x6B2 SWAP5 SWAP4 SWAP3 SWAP2 SWAP1 PUSH2 0x13E5 JUMP JUMPDEST PUSH1 0x40 MLOAD DUP1 SWAP2 SUB SWAP1 LOG3 POP POP POP POP POP POP JUMP JUMPDEST PUSH1 0x0 DUP2 DUP2 MSTORE PUSH1 0x1 PUSH1 0x20 MSTORE PUSH1 0x40 DUP2 KECCAK256 PUSH1 0x4 DUP2 ADD SLOAD DUP3 SWAP2 PUSH1 0x60 SWAP2 DUP3 SWAP2 DUP5 SWAP2 DUP3 SUB PUSH2 0x6FC JUMPI PUSH1 0x40 MLOAD PUSH3 0x461BCD PUSH1 0xE5 SHL DUP2 MSTORE PUSH1 0x4 ADD PUSH2 0x34B SWAP1 PUSH2 0x1301 JUMP JUMPDEST PUSH2 0x714 PUSH1 0x0 DUP1 MLOAD PUSH1 0x20 PUSH2 0x1438 DUP4 CODECOPY DUP2 MLOAD SWAP2 MSTORE CALLER PUSH2 0xCC1 JUMP JUMPDEST DUP1 PUSH2 0x725 JUMPI POP PUSH2 0x725 PUSH1 0x0 CALLER PUSH2 0xCC1 JUMP JUMPDEST DUP1 PUSH2 0x739 JUMPI POP DUP1 SLOAD PUSH1 0x1 PUSH1 0x1 PUSH1 0xA0 SHL SUB AND CALLER EQ JUMPDEST DUP1 PUSH2 0x75D JUMPI POP PUSH1 0x0 DUP8 DUP2 MSTORE PUSH1 0x2 PUSH1 0x20 SWAP1 DUP2 MSTORE PUSH1 0x40 DUP1 DUP4 KECCAK256 CALLER DUP5 MSTORE SWAP1 SWAP2 MSTORE SWAP1 KECCAK256 SLOAD PUSH1 0xFF AND JUMPDEST PUSH2 0x795 JUMPI PUSH1 0x40 MLOAD PUSH3 0x461BCD PUSH1 0xE5 SHL DUP2 MSTORE PUSH1 0x20 PUSH1 0x4 DUP3 ADD MSTORE PUSH1 0x9 PUSH1 0x24 DUP3 ADD MSTORE PUSH9 0x6E6F20616363657373 PUSH1 0xB8 SHL PUSH1 0x44 DUP3 ADD MSTORE PUSH1 0x64 ADD PUSH2 0x34B JUMP JUMPDEST DUP1 SLOAD PUSH1 0x1 DUP3 ADD SLOAD PUSH1 0x4 DUP4 ADD SLOAD PUSH1 0x2 DUP5 ADD DUP1 SLOAD PUSH1 0x1 PUSH1 0x1 PUSH1 0xA0 SHL SUB SWAP5 DUP6 AND SWAP5 SWAP1 SWAP4 AND SWAP3 SWAP1 SWAP2 PUSH1 0x3 DUP7 ADD SWAP2 DUP4 SWAP1 PUSH2 0x7C9 SWAP1 PUSH2 0x1172 JUMP JUMPDEST DUP1 PUSH1 0x1F ADD PUSH1 0x20 DUP1 SWAP2 DIV MUL PUSH1 0x20 ADD PUSH1 0x40 MLOAD SWAP1 DUP2 ADD PUSH1 0x40 MSTORE DUP1 SWAP3 SWAP2 SWAP1 DUP2 DUP2 MSTORE PUSH1 0x20 ADD DUP3 DUP1 SLOAD PUSH2 0x7F5 SWAP1 PUSH2 0x1172 JUMP JUMPDEST DUP1 ISZERO PUSH2 0x842 JUMPI DUP1 PUSH1 0x1F LT PUSH2 0x817 JUMPI PUSH2 0x100 DUP1 DUP4 SLOAD DIV MUL DUP4 MSTORE SWAP2 PUSH1 0x20 ADD SWAP2 PUSH2 0x842 JUMP JUMPDEST DUP3 ADD SWAP2 SWAP1 PUSH1 0x0 MSTORE PUSH1 0x20 PUSH1 0x0 KECCAK256 SWAP1 JUMPDEST DUP2 SLOAD DUP2 MSTORE SWAP1 PUSH1 0x1 ADD SWAP1 PUSH1 0x20 ADD DUP1 DUP4 GT PUSH2 0x825 JUMPI DUP3 SWAP1 SUB PUSH1 0x1F AND DUP3 ADD SWAP2 JUMPDEST POP POP POP POP POP SWAP3 POP DUP2 DUP1 SLOAD PUSH2 0x855 SWAP1 PUSH2 0x1172 JUMP JUMPDEST DUP1 PUSH1 0x1F ADD PUSH1 0x20 DUP1 SWAP2 DIV MUL PUSH1 0x20 ADD PUSH1 0x40 MLOAD SWAP1 DUP2 ADD PUSH1 0x40 MSTORE DUP1 SWAP3 SWAP2 SWAP1 DUP2 DUP2 MSTORE PUSH1 0x20 ADD DUP3 DUP1 SLOAD PUSH2 0x881 SWAP1 PUSH2 0x1172 JUMP JUMPDEST DUP1 ISZERO PUSH2 0x8CE JUMPI DUP1 PUSH1 0x1F LT PUSH2 0x8A3 JUMPI PUSH2 0x100 DUP1 DUP4 SLOAD DIV MUL DUP4 MSTORE SWAP2 PUSH1 0x20 ADD SWAP2 PUSH2 0x8CE JUMP JUMPDEST DUP3 ADD SWAP2 SWAP1 PUSH1 0x0 MSTORE PUSH1 0x20 PUSH1 0x0 KECCAK256 SWAP1 JUMPDEST DUP2 SLOAD DUP2 MSTORE SWAP1 PUSH1 0x1 ADD SWAP1 PUSH1 0x20 ADD DUP1 DUP4 GT PUSH2 0x8B1 JUMPI DUP3 SWAP1 SUB PUSH1 0x1F AND DUP3 ADD SWAP2 JUMPDEST POP POP POP POP POP SWAP2 POP SWAP6 POP SWAP6 POP SWAP6 POP SWAP6 POP SWAP6 POP POP SWAP2 SWAP4 SWAP6 SWAP1 SWAP3 SWAP5 POP JUMP JUMPDEST PUSH1 0x0 DUP3 DUP2 MSTORE PUSH1 0x20 DUP2 SWAP1 MSTORE PUSH1 0x40 SWAP1 KECCAK256 PUSH1 0x1 ADD SLOAD PUSH2 0x904 DUP2 PUSH2 0xD88 JUMP JUMPDEST PUSH2 0x90E DUP4 DUP4 PUSH2 0xD95 JUMP JUMPDEST POP POP POP POP JUMP JUMPDEST PUSH1 0x1 PUSH1 0x1 PUSH1 0xA0 SHL SUB DUP2 AND CALLER EQ PUSH2 0x93D JUMPI PUSH1 0x40 MLOAD PUSH4 0x334BD919 PUSH1 0xE1 SHL DUP2 MSTORE PUSH1 0x4 ADD PUSH1 0x40 MLOAD DUP1 SWAP2 SUB SWAP1 REVERT JUMPDEST PUSH2 0x947 DUP3 DUP3 PUSH2 0xE27 JUMP JUMPDEST POP POP POP JUMP JUMPDEST PUSH1 0x0 DUP3 DUP2 MSTORE PUSH1 0x1 PUSH1 0x20 MSTORE PUSH1 0x40 DUP2 KECCAK256 PUSH1 0x4 DUP2 ADD SLOAD SWAP1 SWAP2 SUB PUSH2 0x97E JUMPI PUSH1 0x40 MLOAD PUSH3 0x461BCD PUSH1 0xE5 SHL DUP2 MSTORE PUSH1 0x4 ADD PUSH2 0x34B SWAP1 PUSH2 0x1301 JUMP JUMPDEST PUSH1 0x1 PUSH1 0x1 PUSH1 0xA0 SHL SUB DUP3 AND PUSH2 0x9C2 JUMPI PUSH1 0x40 MLOAD PUSH3 0x461BCD PUSH1 0xE5 SHL DUP2 MSTORE PUSH1 0x20 PUSH1 0x4 DUP3 ADD MSTORE PUSH1 0xB PUSH1 0x24 DUP3 ADD MSTORE PUSH11 0x626164206772616E746565 PUSH1 0xA8 SHL PUSH1 0x44 DUP3 ADD MSTORE PUSH1 0x64 ADD PUSH2 0x34B JUMP JUMPDEST DUP1 SLOAD PUSH1 0x1 PUSH1 0x1 PUSH1 0xA0 SHL SUB AND CALLER EQ DUP1 PUSH2 0x9ED JUMPI POP PUSH2 0x9ED PUSH1 0x0 DUP1 MLOAD PUSH1 0x20 PUSH2 0x1438 DUP4 CODECOPY DUP2 MLOAD SWAP2 MSTORE CALLER PUSH2 0xCC1 JUMP JUMPDEST DUP1 PUSH2 0x9FE JUMPI POP PUSH2 0x9FE PUSH1 0x0 CALLER PUSH2 0xCC1 JUMP JUMPDEST PUSH2 0xA3C JUMPI PUSH1 0x40 MLOAD PUSH3 0x461BCD PUSH1 0xE5 SHL DUP2 MSTORE PUSH1 0x20 PUSH1 0x4 DUP3 ADD MSTORE PUSH1 0xF PUSH1 0x24 DUP3 ADD MSTORE PUSH15 0x3737BA1037BBB732B917B0B236B4B7 PUSH1 0x89 SHL PUSH1 0x44 DUP3 ADD MSTORE PUSH1 0x64 ADD PUSH2 0x34B JUMP JUMPDEST PUSH1 0x0 DUP4 DUP2 MSTORE PUSH1 0x2 PUSH1 0x20 SWAP1 DUP2 MSTORE PUSH1 0x40 DUP1 DUP4 KECCAK256 PUSH1 0x1 PUSH1 0x1 PUSH1 0xA0 SHL SUB DUP7 AND DUP1 DUP6 MSTORE SWAP3 MSTORE DUP1 DUP4 KECCAK256 DUP1 SLOAD PUSH1 0xFF NOT AND PUSH1 0x1 OR SWAP1 SSTORE MLOAD CALLER SWAP3 DUP7 SWAP2 PUSH32 0x7AEFFE35F64B55A7C424C5FCCC3FBA0F3AC4EBD764CC737855B8734834458F2B SWAP2 SWAP1 LOG4 POP POP POP JUMP JUMPDEST PUSH2 0xAB0 PUSH1 0x0 DUP1 MLOAD PUSH1 0x20 PUSH2 0x1438 DUP4 CODECOPY DUP2 MLOAD SWAP2 MSTORE CALLER PUSH2 0xCC1 JUMP JUMPDEST DUP1 PUSH2 0xAC1 JUMPI POP PUSH2 0xAC1 PUSH1 0x0 CALLER PUSH2 0xCC1 JUMP JUMPDEST PUSH2 0xAF9 JUMPI PUSH1 0x40 MLOAD PUSH3 0x461BCD PUSH1 0xE5 SHL DUP2 MSTORE PUSH1 0x20 PUSH1 0x4 DUP3 ADD MSTORE PUSH1 0x9 PUSH1 0x24 DUP3 ADD MSTORE PUSH9 0x3737BA1030B236B4B7 PUSH1 0xB9 SHL PUSH1 0x44 DUP3 ADD MSTORE PUSH1 0x64 ADD PUSH2 0x34B JUMP JUMPDEST PUSH2 0xB11 PUSH1 0x0 DUP1 MLOAD PUSH1 0x20 PUSH2 0x1418 DUP4 CODECOPY DUP2 MLOAD SWAP2 MSTORE DUP3 PUSH2 0xD95 JUMP JUMPDEST POP POP JUMP JUMPDEST PUSH1 0x0 DUP3 DUP2 MSTORE PUSH1 0x1 PUSH1 0x20 MSTORE PUSH1 0x40 DUP2 KECCAK256 PUSH1 0x4 DUP2 ADD SLOAD DUP3 SUB PUSH2 0xB38 JUMPI PUSH1 0x0 SWAP2 POP POP PUSH2 0x2C3 JUMP JUMPDEST DUP1 SLOAD PUSH1 0x1 PUSH1 0x1 PUSH1 0xA0 SHL SUB SWAP1 DUP2 AND SWAP1 DUP5 AND SUB PUSH2 0xB57 JUMPI PUSH1 0x1 SWAP2 POP POP PUSH2 0x2C3 JUMP JUMPDEST PUSH2 0xB6F PUSH1 0x0 DUP1 MLOAD PUSH1 0x20 PUSH2 0x1438 DUP4 CODECOPY DUP2 MLOAD SWAP2 MSTORE DUP5 PUSH2 0xCC1 JUMP JUMPDEST DUP1 PUSH2 0xB80 JUMPI POP PUSH2 0xB80 PUSH1 0x0 DUP5 PUSH2 0xCC1 JUMP JUMPDEST ISZERO PUSH2 0xB8F JUMPI PUSH1 0x1 SWAP2 POP POP PUSH2 0x2C3 JUMP JUMPDEST POP POP PUSH1 0x0 SWAP2 DUP3 MSTORE PUSH1 0x2 PUSH1 0x20 SWAP1 DUP2 MSTORE PUSH1 0x40 DUP1 DUP5 KECCAK256 PUSH1 0x1 PUSH1 0x1 PUSH1 0xA0 SHL SUB SWAP4 SWAP1 SWAP4 AND DUP5 MSTORE SWAP2 SWAP1 MSTORE SWAP1 KECCAK256 SLOAD PUSH1 0xFF AND SWAP1 JUMP JUMPDEST PUSH1 0x0 DUP3 DUP2 MSTORE PUSH1 0x1 PUSH1 0x20 MSTORE PUSH1 0x40 DUP2 KECCAK256 PUSH1 0x4 DUP2 ADD SLOAD SWAP1 SWAP2 SUB PUSH2 0xBEE JUMPI PUSH1 0x40 MLOAD PUSH3 0x461BCD PUSH1 0xE5 SHL DUP2 MSTORE PUSH1 0x4 ADD PUSH2 0x34B SWAP1 PUSH2 0x1301 JUMP JUMPDEST DUP1 SLOAD PUSH1 0x1 PUSH1 0x1 PUSH1 0xA0 SHL SUB AND CALLER EQ DUP1 PUSH2 0xC19 JUMPI POP PUSH2 0xC19 PUSH1 0x0 DUP1 MLOAD PUSH1 0x20 PUSH2 0x1438 DUP4 CODECOPY DUP2 MLOAD SWAP2 MSTORE CALLER PUSH2 0xCC1 JUMP JUMPDEST DUP1 PUSH2 0xC2A JUMPI POP PUSH2 0xC2A PUSH1 0x0 CALLER PUSH2 0xCC1 JUMP JUMPDEST PUSH2 0xC68 JUMPI PUSH1 0x40 MLOAD PUSH3 0x461BCD PUSH1 0xE5 SHL DUP2 MSTORE PUSH1 0x20 PUSH1 0x4 DUP3 ADD MSTORE PUSH1 0xF PUSH1 0x24 DUP3 ADD MSTORE PUSH15 0x3737BA1037BBB732B917B0B236B4B7 PUSH1 0x89 SHL PUSH1 0x44 DUP3 ADD MSTORE PUSH1 0x64 ADD PUSH2 0x34B JUMP JUMPDEST PUSH1 0x0 DUP4 DUP2 MSTORE PUSH1 0x2 PUSH1 0x20 SWAP1 DUP2 MSTORE PUSH1 0x40 DUP1 DUP4 KECCAK256 PUSH1 0x1 PUSH1 0x1 PUSH1 0xA0 SHL SUB DUP7 AND DUP1 DUP6 MSTORE SWAP3 MSTORE DUP1 DUP4 KECCAK256 DUP1 SLOAD PUSH1 0xFF NOT AND SWAP1 SSTORE MLOAD CALLER SWAP3 DUP7 SWAP2 PUSH32 0xFAB19BDEACF1EA13315B1DA3F79A3403FE4F16793B6A03EEFF9E0BBBEA24FE5F SWAP2 SWAP1 LOG4 POP POP POP JUMP JUMPDEST PUSH1 0x0 SWAP2 DUP3 MSTORE PUSH1 0x20 DUP3 DUP2 MSTORE PUSH1 0x40 DUP1 DUP5 KECCAK256 PUSH1 0x1 PUSH1 0x1 PUSH1 0xA0 SHL SUB SWAP4 SWAP1 SWAP4 AND DUP5 MSTORE SWAP2 SWAP1 MSTORE SWAP1 KECCAK256 SLOAD PUSH1 0xFF AND SWAP1 JUMP JUMPDEST PUSH2 0xD02 PUSH1 0x0 DUP1 MLOAD PUSH1 0x20 PUSH2 0x1438 DUP4 CODECOPY DUP2 MLOAD SWAP2 MSTORE CALLER PUSH2 0xCC1 JUMP JUMPDEST DUP1 PUSH2 0xD13 JUMPI POP PUSH2 0xD13 PUSH1 0x0 CALLER PUSH2 0xCC1 JUMP JUMPDEST PUSH2 0xD4B JUMPI PUSH1 0x40 MLOAD PUSH3 0x461BCD PUSH1 0xE5 SHL DUP2 MSTORE PUSH1 0x20 PUSH1 0x4 DUP3 ADD MSTORE PUSH1 0x9 PUSH1 0x24 DUP3 ADD MSTORE PUSH9 0x3737BA1030B236B4B7 PUSH1 0xB9 SHL PUSH1 0x44 DUP3 ADD MSTORE PUSH1 0x64 ADD PUSH2 0x34B JUMP JUMPDEST PUSH2 0xB11 PUSH1 0x0 DUP1 MLOAD PUSH1 0x20 PUSH2 0x1418 DUP4 CODECOPY DUP2 MLOAD SWAP2 MSTORE DUP3 PUSH2 0xE27 JUMP JUMPDEST PUSH1 0x0 DUP3 DUP2 MSTORE PUSH1 0x20 DUP2 SWAP1 MSTORE PUSH1 0x40 SWAP1 KECCAK256 PUSH1 0x1 ADD SLOAD PUSH2 0xD7E DUP2 PUSH2 0xD88 JUMP JUMPDEST PUSH2 0x90E DUP4 DUP4 PUSH2 0xE27 JUMP JUMPDEST PUSH2 0xD92 DUP2 CALLER PUSH2 0xE92 JUMP JUMPDEST POP JUMP JUMPDEST PUSH1 0x0 PUSH2 0xDA1 DUP4 DUP4 PUSH2 0xCC1 JUMP JUMPDEST PUSH2 0xE1F JUMPI PUSH1 0x0 DUP4 DUP2 MSTORE PUSH1 0x20 DUP2 DUP2 MSTORE PUSH1 0x40 DUP1 DUP4 KECCAK256 PUSH1 0x1 PUSH1 0x1 PUSH1 0xA0 SHL SUB DUP7 AND DUP5 MSTORE SWAP1 SWAP2 MSTORE SWAP1 KECCAK256 DUP1 SLOAD PUSH1 0xFF NOT AND PUSH1 0x1 OR SWAP1 SSTORE PUSH2 0xDD7 CALLER SWAP1 JUMP JUMPDEST PUSH1 0x1 PUSH1 0x1 PUSH1 0xA0 SHL SUB AND DUP3 PUSH1 0x1 PUSH1 0x1 PUSH1 0xA0 SHL SUB AND DUP5 PUSH32 0x2F8788117E7EFF1D82E926EC794901D17C78024A50270940304540A733656F0D PUSH1 0x40 MLOAD PUSH1 0x40 MLOAD DUP1 SWAP2 SUB SWAP1 LOG4 POP PUSH1 0x1 PUSH2 0x2C3 JUMP JUMPDEST POP PUSH1 0x0 PUSH2 0x2C3 JUMP JUMPDEST PUSH1 0x0 PUSH2 0xE33 DUP4 DUP4 PUSH2 0xCC1 JUMP JUMPDEST ISZERO PUSH2 0xE1F JUMPI PUSH1 0x0 DUP4 DUP2 MSTORE PUSH1 0x20 DUP2 DUP2 MSTORE PUSH1 0x40 DUP1 DUP4 KECCAK256 PUSH1 0x1 PUSH1 0x1 PUSH1 0xA0 SHL SUB DUP7 AND DUP1 DUP6 MSTORE SWAP3 MSTORE DUP1 DUP4 KECCAK256 DUP1 SLOAD PUSH1 0xFF NOT AND SWAP1 SSTORE MLOAD CALLER SWAP3 DUP7 SWAP2 PUSH32 0xF6391F5C32D9C69D2A47EA670B442974B53935D1EDC7FD64EB21E047A839171B SWAP2 SWAP1 LOG4 POP PUSH1 0x1 PUSH2 0x2C3 JUMP JUMPDEST PUSH2 0xE9C DUP3 DUP3 PUSH2 0xCC1 JUMP JUMPDEST PUSH2 0xB11 JUMPI PUSH1 0x40 MLOAD PUSH4 0xE2517D3F PUSH1 0xE0 SHL DUP2 MSTORE PUSH1 0x1 PUSH1 0x1 PUSH1 0xA0 SHL SUB DUP3 AND PUSH1 0x4 DUP3 ADD MSTORE PUSH1 0x24 DUP2 ADD DUP4 SWAP1 MSTORE PUSH1 0x44 ADD PUSH2 0x34B JUMP JUMPDEST PUSH1 0x0 PUSH1 0x20 DUP3 DUP5 SUB SLT ISZERO PUSH2 0xEDD JUMPI PUSH1 0x0 DUP1 REVERT JUMPDEST DUP2 CALLDATALOAD PUSH1 0x1 PUSH1 0x1 PUSH1 0xE0 SHL SUB NOT DUP2 AND DUP2 EQ PUSH2 0xEF5 JUMPI PUSH1 0x0 DUP1 REVERT JUMPDEST SWAP4 SWAP3 POP POP POP JUMP JUMPDEST DUP1 CALLDATALOAD PUSH1 0x1 PUSH1 0x1 PUSH1 0xA0 SHL SUB DUP2 AND DUP2 EQ PUSH2 0xF13 JUMPI PUSH1 0x0 DUP1 REVERT JUMPDEST SWAP2 SWAP1 POP JUMP JUMPDEST PUSH1 0x0 DUP1 DUP4 PUSH1 0x1F DUP5 ADD SLT PUSH2 0xF2A JUMPI PUSH1 0x0 DUP1 REVERT JUMPDEST POP DUP2 CALLDATALOAD PUSH8 0xFFFFFFFFFFFFFFFF DUP2 GT ISZERO PUSH2 0xF42 JUMPI PUSH1 0x0 DUP1 REVERT JUMPDEST PUSH1 0x20 DUP4 ADD SWAP2 POP DUP4 PUSH1 0x20 DUP3 DUP6 ADD ADD GT ISZERO PUSH2 0xF5A JUMPI PUSH1 0x0 DUP1 REVERT JUMPDEST SWAP3 POP SWAP3 SWAP1 POP JUMP JUMPDEST PUSH1 0x0 DUP1 PUSH1 0x0 DUP1 PUSH1 0x0 DUP1 PUSH1 0x80 DUP8 DUP10 SUB SLT ISZERO PUSH2 0xF7A JUMPI PUSH1 0x0 DUP1 REVERT JUMPDEST DUP7 CALLDATALOAD SWAP6 POP PUSH2 0xF8A PUSH1 0x20 DUP9 ADD PUSH2 0xEFC JUMP JUMPDEST SWAP5 POP PUSH1 0x40 DUP8 ADD CALLDATALOAD PUSH8 0xFFFFFFFFFFFFFFFF DUP1 DUP3 GT ISZERO PUSH2 0xFA7 JUMPI PUSH1 0x0 DUP1 REVERT JUMPDEST PUSH2 0xFB3 DUP11 DUP4 DUP12 ADD PUSH2 0xF18 JUMP JUMPDEST SWAP1 SWAP7 POP SWAP5 POP PUSH1 0x60 DUP10 ADD CALLDATALOAD SWAP2 POP DUP1 DUP3 GT ISZERO PUSH2 0xFCC JUMPI PUSH1 0x0 DUP1 REVERT JUMPDEST POP PUSH2 0xFD9 DUP10 DUP3 DUP11 ADD PUSH2 0xF18 JUMP JUMPDEST SWAP8 SWAP11 SWAP7 SWAP10 POP SWAP5 SWAP8 POP SWAP3 SWAP6 SWAP4 SWAP5 SWAP3 POP POP POP JUMP JUMPDEST PUSH1 0x0 DUP1 PUSH1 0x0 DUP1 PUSH1 0x0 PUSH1 0x60 DUP7 DUP9 SUB SLT ISZERO PUSH2 0x1003 JUMPI PUSH1 0x0 DUP1 REVERT JUMPDEST DUP6 CALLDATALOAD SWAP5 POP PUSH1 0x20 DUP7 ADD CALLDATALOAD PUSH8 0xFFFFFFFFFFFFFFFF DUP1 DUP3 GT ISZERO PUSH2 0x1022 JUMPI PUSH1 0x0 DUP1 REVERT JUMPDEST PUSH2 0x102E DUP10 DUP4 DUP11 ADD PUSH2 0xF18 JUMP JUMPDEST SWAP1 SWAP7 POP SWAP5 POP PUSH1 0x40 DUP9 ADD CALLDATALOAD SWAP2 POP DUP1 DUP3 GT ISZERO PUSH2 0x1047 JUMPI PUSH1 0x0 DUP1 REVERT JUMPDEST POP PUSH2 0x1054 DUP9 DUP3 DUP10 ADD PUSH2 0xF18 JUMP JUMPDEST SWAP7 SWAP10 SWAP6 SWAP9 POP SWAP4 SWAP7 POP SWAP3 SWAP5 SWAP4 SWAP3 POP POP POP JUMP JUMPDEST PUSH1 0x0 PUSH1 0x20 DUP3 DUP5 SUB SLT ISZERO PUSH2 0x1077 JUMPI PUSH1 0x0 DUP1 REVERT JUMPDEST POP CALLDATALOAD SWAP2 SWAP1 POP JUMP JUMPDEST PUSH1 0x0 DUP2 MLOAD DUP1 DUP5 MSTORE PUSH1 0x0 JUMPDEST DUP2 DUP2 LT ISZERO PUSH2 0x10A4 JUMPI PUSH1 0x20 DUP2 DUP6 ADD DUP2 ADD MLOAD DUP7 DUP4 ADD DUP3 ADD MSTORE ADD PUSH2 0x1088 JUMP JUMPDEST POP PUSH1 0x0 PUSH1 0x20 DUP3 DUP7 ADD ADD MSTORE PUSH1 0x20 PUSH1 0x1F NOT PUSH1 0x1F DUP4 ADD AND DUP6 ADD ADD SWAP2 POP POP SWAP3 SWAP2 POP POP JUMP JUMPDEST PUSH1 0x1 PUSH1 0x1 PUSH1 0xA0 SHL SUB DUP7 DUP2 AND DUP3 MSTORE DUP6 AND PUSH1 0x20 DUP3 ADD MSTORE PUSH1 0xA0 PUSH1 0x40 DUP3 ADD DUP2 SWAP1 MSTORE PUSH1 0x0 SWAP1 PUSH2 0x10F0 SWAP1 DUP4 ADD DUP7 PUSH2 0x107E JUMP JUMPDEST DUP3 DUP2 SUB PUSH1 0x60 DUP5 ADD MSTORE PUSH2 0x1102 DUP2 DUP7 PUSH2 0x107E JUMP JUMPDEST SWAP2 POP POP DUP3 PUSH1 0x80 DUP4 ADD MSTORE SWAP7 SWAP6 POP POP POP POP POP POP JUMP JUMPDEST PUSH1 0x0 DUP1 PUSH1 0x40 DUP4 DUP6 SUB SLT ISZERO PUSH2 0x1128 JUMPI PUSH1 0x0 DUP1 REVERT JUMPDEST DUP3 CALLDATALOAD SWAP2 POP PUSH2 0x1138 PUSH1 0x20 DUP5 ADD PUSH2 0xEFC JUMP JUMPDEST SWAP1 POP SWAP3 POP SWAP3 SWAP1 POP JUMP JUMPDEST PUSH1 0x0 PUSH1 0x20 DUP3 DUP5 SUB SLT ISZERO PUSH2 0x1153 JUMPI PUSH1 0x0 DUP1 REVERT JUMPDEST PUSH2 0xEF5 DUP3 PUSH2 0xEFC JUMP JUMPDEST PUSH4 0x4E487B71 PUSH1 0xE0 SHL PUSH1 0x0 MSTORE PUSH1 0x41 PUSH1 0x4 MSTORE PUSH1 0x24 PUSH1 0x0 REVERT JUMPDEST PUSH1 0x1 DUP2 DUP2 SHR SWAP1 DUP3 AND DUP1 PUSH2 0x1186 JUMPI PUSH1 0x7F DUP3 AND SWAP2 POP JUMPDEST PUSH1 0x20 DUP3 LT DUP2 SUB PUSH2 0x11A6 JUMPI PUSH4 0x4E487B71 PUSH1 0xE0 SHL PUSH1 0x0 MSTORE PUSH1 0x22 PUSH1 0x4 MSTORE PUSH1 0x24 PUSH1 0x0 REVERT JUMPDEST POP SWAP2 SWAP1 POP JUMP JUMPDEST PUSH1 0x1F DUP3 GT ISZERO PUSH2 0x947 JUMPI PUSH1 0x0 DUP2 PUSH1 0x0 MSTORE PUSH1 0x20 PUSH1 0x0 KECCAK256 PUSH1 0x1F DUP6 ADD PUSH1 0x5 SHR DUP2 ADD PUSH1 0x20 DUP7 LT ISZERO PUSH2 0x11D5 JUMPI POP DUP1 JUMPDEST PUSH1 0x1F DUP6 ADD PUSH1 0x5 SHR DUP3 ADD SWAP2 POP JUMPDEST DUP2 DUP2 LT ISZERO PUSH2 0x11F4 JUMPI DUP3 DUP2 SSTORE PUSH1 0x1 ADD PUSH2 0x11E1 JUMP JUMPDEST POP POP POP POP POP POP JUMP JUMPDEST DUP2 MLOAD PUSH8 0xFFFFFFFFFFFFFFFF DUP2 GT ISZERO PUSH2 0x1216 JUMPI PUSH2 0x1216 PUSH2 0x115C JUMP JUMPDEST PUSH2 0x122A DUP2 PUSH2 0x1224 DUP5 SLOAD PUSH2 0x1172 JUMP JUMPDEST DUP5 PUSH2 0x11AC JUMP JUMPDEST PUSH1 0x20 DUP1 PUSH1 0x1F DUP4 GT PUSH1 0x1 DUP2 EQ PUSH2 0x125F JUMPI PUSH1 0x0 DUP5 ISZERO PUSH2 0x1247 JUMPI POP DUP6 DUP4 ADD MLOAD JUMPDEST PUSH1 0x0 NOT PUSH1 0x3 DUP7 SWAP1 SHL SHR NOT AND PUSH1 0x1 DUP6 SWAP1 SHL OR DUP6 SSTORE PUSH2 0x11F4 JUMP JUMPDEST PUSH1 0x0 DUP6 DUP2 MSTORE PUSH1 0x20 DUP2 KECCAK256 PUSH1 0x1F NOT DUP7 AND SWAP2 JUMPDEST DUP3 DUP2 LT ISZERO PUSH2 0x128E JUMPI DUP9 DUP7 ADD MLOAD DUP3 SSTORE SWAP5 DUP5 ADD SWAP5 PUSH1 0x1 SWAP1 SWAP2 ADD SWAP1 DUP5 ADD PUSH2 0x126F JUMP JUMPDEST POP DUP6 DUP3 LT ISZERO PUSH2 0x12AC JUMPI DUP8 DUP6 ADD MLOAD PUSH1 0x0 NOT PUSH1 0x3 DUP9 SWAP1 SHL PUSH1 0xF8 AND SHR NOT AND DUP2 SSTORE JUMPDEST POP POP POP POP POP PUSH1 0x1 SWAP1 DUP2 SHL ADD SWAP1 SSTORE POP JUMP JUMPDEST DUP2 DUP4 MSTORE DUP2 DUP2 PUSH1 0x20 DUP6 ADD CALLDATACOPY POP PUSH1 0x0 DUP3 DUP3 ADD PUSH1 0x20 SWAP1 DUP2 ADD SWAP2 SWAP1 SWAP2 MSTORE PUSH1 0x1F SWAP1 SWAP2 ADD PUSH1 0x1F NOT AND SWAP1 SWAP2 ADD ADD SWAP1 JUMP JUMPDEST PUSH1 0x20 DUP2 MSTORE PUSH1 0x0 PUSH2 0x12F9 PUSH1 0x20 DUP4 ADD DUP5 DUP7 PUSH2 0x12BC JUMP JUMPDEST SWAP5 SWAP4 POP POP POP POP JUMP JUMPDEST PUSH1 0x20 DUP1 DUP3 MSTORE PUSH1 0x9 SWAP1 DUP3 ADD MSTORE PUSH9 0x1B9BDD08199BDD5B99 PUSH1 0xBA SHL PUSH1 0x40 DUP3 ADD MSTORE PUSH1 0x60 ADD SWAP1 JUMP JUMPDEST PUSH8 0xFFFFFFFFFFFFFFFF DUP4 GT ISZERO PUSH2 0x133C JUMPI PUSH2 0x133C PUSH2 0x115C JUMP JUMPDEST PUSH2 0x1350 DUP4 PUSH2 0x134A DUP4 SLOAD PUSH2 0x1172 JUMP JUMPDEST DUP4 PUSH2 0x11AC JUMP JUMPDEST PUSH1 0x0 PUSH1 0x1F DUP5 GT PUSH1 0x1 DUP2 EQ PUSH2 0x1384 JUMPI PUSH1 0x0 DUP6 ISZERO PUSH2 0x136C JUMPI POP DUP4 DUP3 ADD CALLDATALOAD JUMPDEST PUSH1 0x0 NOT PUSH1 0x3 DUP8 SWAP1 SHL SHR NOT AND PUSH1 0x1 DUP7 SWAP1 SHL OR DUP4 SSTORE PUSH2 0x13DE JUMP JUMPDEST PUSH1 0x0 DUP4 DUP2 MSTORE PUSH1 0x20 SWAP1 KECCAK256 PUSH1 0x1F NOT DUP7 AND SWAP1 DUP4 JUMPDEST DUP3 DUP2 LT ISZERO PUSH2 0x13B5 JUMPI DUP7 DUP6 ADD CALLDATALOAD DUP3 SSTORE PUSH1 0x20 SWAP5 DUP6 ADD SWAP5 PUSH1 0x1 SWAP1 SWAP3 ADD SWAP2 ADD PUSH2 0x1395 JUMP JUMPDEST POP DUP7 DUP3 LT ISZERO PUSH2 0x13D2 JUMPI PUSH1 0x0 NOT PUSH1 0xF8 DUP9 PUSH1 0x3 SHL AND SHR NOT DUP5 DUP8 ADD CALLDATALOAD AND DUP2 SSTORE JUMPDEST POP POP PUSH1 0x1 DUP6 PUSH1 0x1 SHL ADD DUP4 SSTORE JUMPDEST POP POP POP POP POP JUMP JUMPDEST PUSH1 0x40 DUP2 MSTORE PUSH1 0x0 PUSH2 0x13F9 PUSH1 0x40 DUP4 ADD DUP7 DUP9 PUSH2 0x12BC JUMP JUMPDEST DUP3 DUP2 SUB PUSH1 0x20 DUP5 ADD MSTORE PUSH2 0x140C DUP2 DUP6 DUP8 PUSH2 0x12BC JUMP JUMPDEST SWAP8 SWAP7 POP POP POP POP POP POP POP JUMP INVALID EXP CALL 0xDA 0xC7 0xDE LOG2 REVERT PUSH32 0x7738119CEC7DF099DFAD49AA9D2E7D17BA6B60F63AE7411FA49807205CE4D355 MULMOD 0x2E CREATE2 0xA8 LOG1 DUP16 JUMP 0xE8 SWAP2 EXTCODECOPY DELEGATECALL LOG2 ADD 0xFB 0xE2 DUP8 DUP3 JUMPDEST MULMOD JUMP SWAP4 0xC2 OR PUSH22 0xA2646970667358221220A0A7970AED703DB08FDA55DA ORIGIN 0xE 0xAD 0xB3 DUP3 0xD9 PUSH2 0xEB59 0x4B 0xEB SWAP9 CHAINID 0xB0 DUP4 RETURNDATACOPY 0xD6 PUSH3 0x13364 PUSH20 0x6F6C634300081800330000000000000000000000 "},"methodIdentifiers":{"ADMIN_ROLE()":"75b238fc","DEFAULT_ADMIN_ROLE()":"a217fddf","DOCTOR_ROLE()":"fec331f2","addDoctor(address)":"4780468f","createRecord(bytes32,address,string,string)":"07b702ba","getRecord(bytes32)":"213681cd","getRoleAdmin(bytes32)":"248a9ca3","grantAccess(bytes32,address)":"40554c3a","grantRole(bytes32,address)":"2f2ff15d","hasAccess(bytes32,address)":"83177db3","hasRole(bytes32,address)":"91d14854","removeDoctor(address)":"98fc90e9","renounceRole(bytes32,address)":"36568abe","revokeAccess(bytes32,address)":"8d53b208","revokeRole(bytes32,address)":"d547741f","supportsInterface(bytes4)":"01ffc9a7","updateRecord(bytes32,string,string)":"0fdf5ca7"}}}}}